{"abi":[{"type":"constructor","inputs":[{"name":"usdcAddress","type":"address","internalType":"address"},{"name":"treasuryAddress","type":"address","internalType":"address"},{"name":"minBufferSeconds","type":"uint64","internalType":"uint64"}],"stateMutability":"nonpayable"},{"type":"function","name":"claim","inputs":[{"name":"goalId","type":"uint256","internalType":"uint256"},{"name":"to","type":"address","internalType":"address"}],"outputs":[],"stateMutability":"nonpayable"},{"type":"function","name":"createGoal","inputs":[{"name":"amount","type":"uint256","internalType":"uint256"},{"name":"deadline","type":"uint64","internalType":"uint64"},{"name":"description","type":"string","internalType":"string"}],"outputs":[{"name":"goalId","type":"uint256","internalType":"uint256"}],"stateMutability":"nonpayable"},{"type":"function","name":"forfeit","inputs":[{"name":"goalId","type":"uint256","internalType":"uint256"}],"outputs":[],"stateMutability":"nonpayable"},{"type":"function","name":"getGoal","inputs":[{"name":"goalId","type":"uint256","internalType":"uint256"}],"outputs":[{"name":"","type":"tuple","internalType":"struct GoalPledgeEscrow.Goal","components":[{"name":"owner","type":"address","internalType":"address"},{"name":"amount","type":"uint128","internalType":"uint128"},{"name":"deadline","type":"uint64","internalType":"uint64"},{"name":"completed","type":"bool","internalType":"bool"},{"name":"createdAt","type":"uint64","internalType":"uint64"},{"name":"claimed","type":"bool","internalType":"bool"},{"name":"description","type":"string","internalType":"string"}]}],"stateMutability":"view"},{"type":"function","name":"getUserGoals","inputs":[{"name":"user","type":"address","internalType":"address"}],"outputs":[{"name":"","type":"uint256[]","internalType":"uint256[]"}],"stateMutability":"view"},{"type":"function","name":"goals","inputs":[{"name":"","type":"uint256","internalType":"uint256"}],"outputs":[{"name":"owner","type":"address","internalType":"address"},{"name":"amount","type":"uint128","internalType":"uint128"},{"name":"deadline","type":"uint64","internalType":"uint64"},{"name":"completed","type":"bool","internalType":"bool"},{"name":"createdAt","type":"uint64","internalType":"uint64"},{"name":"claimed","type":"bool","internalType":"bool"},{"name":"description","type":"string","internalType":"string"}],"stateMutability":"view"},{"type":"function","name":"markComplete","inputs":[{"name":"goalId","type":"uint256","internalType":"uint256"}],"outputs":[],"stateMutability":"nonpayable"},{"type":"function","name":"minDeadlineBuffer","inputs":[],"outputs":[{"name":"","type":"uint64","internalType":"uint64"}],"stateMutability":"view"},{"type":"function","name":"nextGoalId","inputs":[],"outputs":[{"name":"","type":"uint256","internalType":"uint256"}],"stateMutability":"view"},{"type":"function","name":"owner","inputs":[],"outputs":[{"name":"","type":"address","internalType":"address"}],"stateMutability":"view"},{"type":"function","name":"setMinDeadlineBuffer","inputs":[{"name":"newBuffer","type":"uint64","internalType":"uint64"}],"outputs":[],"stateMutability":"nonpayable"},{"type":"function","name":"setTreasury","inputs":[{"name":"newTreasury","type":"address","internalType":"address"}],"outputs":[],"stateMutability":"nonpayable"},{"type":"function","name":"treasury","inputs":[],"outputs":[{"name":"","type":"address","internalType":"address"}],"stateMutability":"view"},{"type":"function","name":"usdc","inputs":[],"outputs":[{"name":"","type":"address","internalType":"contract IERC20"}],"stateMutability":"view"},{"type":"function","name":"userGoalIds","inputs":[{"name":"","type":"address","internalType":"address"},{"name":"","type":"uint256","internalType":"uint256"}],"outputs":[{"name":"","type":"uint256","internalType":"uint256"}],"stateMutability":"view"},{"type":"event","name":"GoalCompleted","inputs":[{"name":"goalId","type":"uint256","indexed":true,"internalType":"uint256"}],"anonymous":false},{"type":"event","name":"GoalCreated","inputs":[{"name":"goalId","type":"uint256","indexed":true,"internalType":"uint256"},{"name":"owner","type":"address","indexed":true,"internalType":"address"},{"name":"amount","type":"uint256","indexed":false,"internalType":"uint256"},{"name":"deadline","type":"uint64","indexed":false,"internalType":"uint64"},{"name":"description","type":"string","indexed":false,"internalType":"string"}],"anonymous":false},{"type":"event","name":"StakeClaimed","inputs":[{"name":"goalId","type":"uint256","indexed":true,"internalType":"uint256"},{"name":"owner","type":"address","indexed":true,"internalType":"address"},{"name":"amount","type":"uint256","indexed":false,"internalType":"uint256"}],"anonymous":false},{"type":"event","name":"StakeForfeited","inputs":[{"name":"goalId","type":"uint256","indexed":true,"internalType":"uint256"},{"name":"treasury","type":"address","indexed":true,"internalType":"address"},{"name":"amount","type":"uint256","indexed":false,"internalType":"uint256"}],"anonymous":false}],"bytecode":{"object":"0x60a060405234801561000f575f80fd5b5060405161168438038061168483398101604081905261002e91610126565b6001600160a01b0383166100755760405162461bcd60e51b8152602060048201526009602482015268555344435f5a45524f60b81b60448201526064015b60405180910390fd5b6001600160a01b0382166100bb5760405162461bcd60e51b815260206004820152600d60248201526c54524541535552595f5a45524f60981b604482015260640161006c565b6001600160a01b039283166080525f80546001600160401b03909216600160a01b026001600160e01b03199092169290931691909117179055600480546001600160a01b03191633179055610176565b80516001600160a01b0381168114610121575f80fd5b919050565b5f805f60608486031215610138575f80fd5b6101418461010b565b925061014f6020850161010b565b60408501519092506001600160401b038116811461016b575f80fd5b809150509250925092565b6080516114e16101a35f395f818161012201528181610451015281816108af0152610c8401526114e15ff3fe608060405234801561000f575f80fd5b50600436106100f0575f3560e01c806367067ed611610093578063ddd5e1b211610063578063ddd5e1b21461023b578063df6ed6cb1461024e578063e681d3561461026e578063f0f4426014610281575f80fd5b806367067ed6146101fb5780638da5cb5b1461020e5780639d6105da1461021f578063d72c564714610232575f80fd5b80634816309a116100ce5780634816309a146101715780635f52753a146101a257806361449ca2146101c357806361d027b3146101e9575f80fd5b806335742c63146100f45780633e413bee1461011d5780633ed546ab1461015c575b5f80fd5b61010761010236600461100f565b610294565b604051610114919061102f565b60405180910390f35b6101447f000000000000000000000000000000000000000000000000000000000000000081565b6040516001600160a01b039091168152602001610114565b61016f61016a366004611071565b6102fd565b005b5f5461018a90600160a01b90046001600160401b031681565b6040516001600160401b039091168152602001610114565b6101b56101b0366004611088565b610551565b604051908152602001610114565b6101d66101d1366004611071565b61057c565b60405161011497969594939291906110de565b5f54610144906001600160a01b031681565b61016f610209366004611071565b61066d565b6004546001600160a01b0316610144565b6101b561022d36600461115a565b6107ab565b6101b560015481565b61016f6102493660046111db565b610b4b565b61026161025c366004611071565b610d79565b6040516101149190611205565b61016f61027c366004611297565b610ed5565b61016f61028f36600461100f565b610f47565b6001600160a01b0381165f908152600360209081526040918290208054835181840281018401909452808452606093928301828280156102f157602002820191905f5260205f20905b8154815260200190600101908083116102dd575b50505050509050919050565b5f81815260026020819052604090912090810154600160401b900460ff161561035f5760405162461bcd60e51b815260206004820152600f60248201526e1053149150511657d0d31052535151608a1b60448201526064015b60405180910390fd5b6001810154600160801b90046001600160401b031642116103b65760405162461bcd60e51b81526020600482015260116024820152704e4f545f504153545f444541444c494e4560781b6044820152606401610356565b6001810154600160c01b900460ff16156104065760405162461bcd60e51b81526020600482015260116024820152701053149150511657d0d3d3541311551151607a1b6044820152606401610356565b60028101805460ff60401b1916600160401b1790555f54600182015460405163a9059cbb60e01b81526001600160a01b0392831660048201526001600160801b0390911660248201527f00000000000000000000000000000000000000000000000000000000000000009091169063a9059cbb906044016020604051808303815f875af1158015610499573d5f803e3d5ffd5b505050506040513d601f19601f820116820180604052508101906104bd91906112b0565b6104fb5760405162461bcd60e51b815260206004820152600f60248201526e1514905394d1915497d19052531151608a1b6044820152606401610356565b5f5460018201546040516001600160801b0390911681526001600160a01b039091169083907f3d8f5a59c068c3ac6c20380a090bf8f172ff15e1f256d9915eb4f59c712f9edb9060200160405180910390a35050565b6003602052815f5260405f20818154811061056a575f80fd5b905f5260205f20015f91509150505481565b600260208190525f918252604090912080546001820154928201546003830180546001600160a01b03909316946001600160801b038116946001600160401b03600160801b830481169560ff600160c01b90940484169591821694600160401b909204909316926105ec906112cf565b80601f0160208091040260200160405190810160405280929190818152602001828054610618906112cf565b80156106635780601f1061063a57610100808354040283529160200191610663565b820191905f5260205f20905b81548152906001019060200180831161064657829003601f168201915b5050505050905087565b5f81815260026020526040902080546001600160a01b031633146106c45760405162461bcd60e51b815260206004820152600e60248201526d2727aa2fa3a7a0a62fa7aba722a960911b6044820152606401610356565b6001810154600160c01b900460ff16156107145760405162461bcd60e51b81526020600482015260116024820152701053149150511657d0d3d3541311551151607a1b6044820152606401610356565b6001810154600160801b90046001600160401b03164211156107685760405162461bcd60e51b815260206004820152600d60248201526c504153545f444541444c494e4560981b6044820152606401610356565b60018101805460ff60c01b1916600160c01b17905560405182907f64e68ade6bce7f723a972cc4e1f0eef423b70983429960ebad16879387a86bde905f90a25050565b5f8085116107e95760405162461bcd60e51b815260206004820152600b60248201526a414d4f554e545f5a45524f60a81b6044820152606401610356565b5f5461080590600160a01b90046001600160401b03164261131b565b846001600160401b03161161084c5760405162461bcd60e51b815260206004820152600d60248201526c2222a0a22624a722afa9a7a7a760991b6044820152606401610356565b8161088d5760405162461bcd60e51b81526020600482015260116024820152704445534352495054494f4e5f454d50545960781b6044820152606401610356565b6040516323b872dd60e01b8152336004820152306024820152604481018690527f00000000000000000000000000000000000000000000000000000000000000006001600160a01b0316906323b872dd906064016020604051808303815f875af11580156108fd573d5f803e3d5ffd5b505050506040513d601f19601f8201168201806040525081019061092191906112b0565b6109645760405162461bcd60e51b81526020600482015260146024820152731514905394d1915497d19493d357d1905253115160621b6044820152606401610356565b60015f815461097290611334565b91905081905590506040518060e00160405280336001600160a01b03168152602001866001600160801b03168152602001856001600160401b031681526020015f15158152602001426001600160401b031681526020015f1515815260200184848080601f0160208091040260200160405190810160405280939291908181526020018383808284375f92018290525093909452505083815260026020818152604092839020855181546001600160a01b039091166001600160a01b0319909116178155908501516001820180549487015160608801511515600160c01b0260ff60c01b196001600160401b03928316600160801b026001600160c01b03199098166001600160801b03909516949094179690961792909216949094179093556080850151918101805460a08701511515600160401b0268ffffffffffffffffff19909116939094169290921792909217905560c08301519091506003820190610adc90826113ac565b5050335f818152600360209081526040808320805460018101825590845291909220018490555190915082907fa5678d4589570c07d52d51e1132aaae5b8d783e7038a8594f2dfa9a7eef74d7890610b3b908990899089908990611466565b60405180910390a3949350505050565b5f82815260026020526040902080546001600160a01b03163314610ba25760405162461bcd60e51b815260206004820152600e60248201526d2727aa2fa3a7a0a62fa7aba722a960911b6044820152606401610356565b6002810154600160401b900460ff1615610bf05760405162461bcd60e51b815260206004820152600f60248201526e1053149150511657d0d31052535151608a1b6044820152606401610356565b6001810154600160c01b900460ff16610c3b5760405162461bcd60e51b815260206004820152600d60248201526c1393d517d0d3d3541311551151609a1b6044820152606401610356565b60028101805460ff60401b1916600160401b179055600181015460405163a9059cbb60e01b81526001600160a01b0384811660048301526001600160801b0390921660248201527f00000000000000000000000000000000000000000000000000000000000000009091169063a9059cbb906044016020604051808303815f875af1158015610ccc573d5f803e3d5ffd5b505050506040513d601f19601f82011682018060405250810190610cf091906112b0565b610d2e5760405162461bcd60e51b815260206004820152600f60248201526e1514905394d1915497d19052531151608a1b6044820152606401610356565b60018101546040516001600160801b039091168152339084907f179c71ca886dcb57d7ec21b21417e53762b259503250d3c13169430c96fe62409060200160405180910390a3505050565b6040805160e0810182525f8082526020820181905291810182905260608082018390526080820183905260a082019290925260c08101919091525f82815260026020818152604092839020835160e08101855281546001600160a01b0316815260018201546001600160801b038116938201939093526001600160401b03600160801b840481169582019590955260ff600160c01b909304831615156060820152928101549384166080840152600160401b90930416151560a082015260038201805491929160c084019190610e4e906112cf565b80601f0160208091040260200160405190810160405280929190818152602001828054610e7a906112cf565b8015610ec55780601f10610e9c57610100808354040283529160200191610ec5565b820191905f5260205f20905b815481529060010190602001808311610ea857829003601f168201915b5050505050815250509050919050565b6004546001600160a01b03163314610f1b5760405162461bcd60e51b81526020600482015260096024820152682727aa2fa7aba722a960b91b6044820152606401610356565b5f80546001600160401b03909216600160a01b0267ffffffffffffffff60a01b19909216919091179055565b6004546001600160a01b03163314610f8d5760405162461bcd60e51b81526020600482015260096024820152682727aa2fa7aba722a960b91b6044820152606401610356565b6001600160a01b038116610fd35760405162461bcd60e51b815260206004820152600d60248201526c54524541535552595f5a45524f60981b6044820152606401610356565b5f80546001600160a01b0319166001600160a01b0392909216919091179055565b80356001600160a01b038116811461100a575f80fd5b919050565b5f6020828403121561101f575f80fd5b61102882610ff4565b9392505050565b602080825282518282018190525f918401906040840190835b81811015611066578351835260209384019390920191600101611048565b509095945050505050565b5f60208284031215611081575f80fd5b5035919050565b5f8060408385031215611099575f80fd5b6110a283610ff4565b946020939093013593505050565b5f81518084528060208401602086015e5f602082860101526020601f19601f83011685010191505092915050565b6001600160a01b03881681526001600160801b03871660208201526001600160401b03868116604083015285151560608301528416608082015282151560a082015260e060c082018190525f90611137908301846110b0565b9998505050505050505050565b80356001600160401b038116811461100a575f80fd5b5f805f806060858703121561116d575f80fd5b8435935061117d60208601611144565b925060408501356001600160401b03811115611197575f80fd5b8501601f810187136111a7575f80fd5b80356001600160401b038111156111bc575f80fd5b8760208284010111156111cd575f80fd5b949793965060200194505050565b5f80604083850312156111ec575f80fd5b823591506111fc60208401610ff4565b90509250929050565b6020815260018060a01b0382511660208201526001600160801b0360208301511660408201526001600160401b0360408301511660608201525f6060830151611252608084018215159052565b5060808301516001600160401b03811660a08401525060a083015180151560c08401525060c083015160e08084015261128f6101008401826110b0565b949350505050565b5f602082840312156112a7575f80fd5b61102882611144565b5f602082840312156112c0575f80fd5b81518015158114611028575f80fd5b600181811c908216806112e357607f821691505b60208210810361130157634e487b7160e01b5f52602260045260245ffd5b50919050565b634e487b7160e01b5f52601160045260245ffd5b8082018082111561132e5761132e611307565b92915050565b5f6001820161134557611345611307565b5060010190565b634e487b7160e01b5f52604160045260245ffd5b601f8211156113a757805f5260205f20601f840160051c810160208510156113855750805b601f840160051c820191505b818110156113a4575f8155600101611391565b50505b505050565b81516001600160401b038111156113c5576113c561134c565b6113d9816113d384546112cf565b84611360565b6020601f82116001811461140b575f83156113f45750848201515b5f19600385901b1c1916600184901b1784556113a4565b5f84815260208120601f198516915b8281101561143a578785015182556020948501946001909201910161141a565b508482101561145757868401515f19600387901b60f8161c191681555b50505050600190811b01905550565b8481526001600160401b038416602082015260606040820152816060820152818360808301375f818301608090810191909152601f909201601f19160101939250505056fea2646970667358221220974133019b1ba3f7fe4d4e5833be1b98e2aae68870b8b918ca58fdada8441d0864736f6c634300081a0033","linkReferences":{}},"methodIdentifiers":{"claim(uint256,address)":"ddd5e1b2","createGoal(uint256,uint64,string)":"9d6105da","forfeit(uint256)":"3ed546ab","getGoal(uint256)":"df6ed6cb","getUserGoals(address)":"35742c63","goals(uint256)":"61449ca2","markComplete(uint256)":"67067ed6","minDeadlineBuffer()":"4816309a","nextGoalId()":"d72c5647","owner()":"8da5cb5b","setMinDeadlineBuffer(uint64)":"e681d356","setTreasury(address)":"f0f44260","treasury()":"61d027b3","usdc()":"3e413bee","userGoalIds(address,uint256)":"5f52753a"},"id":0}